:100000000AC03FC010C00FC00EC00DC00CC00BC056
:100010000AC009C008C011271FBFCFE5D0E0DEBF6E
:10002000CDBF65D09DC0ECCF8A95000000000000D8
:10003000000000000000C1F708952F933F93CF9375
:10004000DF93C82FD92F8117910749F020E030E0C6
:1000500084E6EADF2F5F3F4F2C173D07C9F7DF919A
:10006000CF913F912F91089540E14EBDE6DF1EBD37
:1000700008954FE150B14150E9F78150910BC9F714
:1000800008951895CF9344E650E057BD46BD84E8E7
:1000900090E0EADF80E290E0D0DFC7E08AE090E025
:1000A000E3DF8AE090E0C9DFC150C1F7CF91089546
:1000B000CF9344E650E057BD46BD84E890E0D4DFDE
:1000C00080E290E0BADFC5E08AE090E0CDDF8AE030
:1000D00090E0B3DFC150C1F78AE090E0C5DF80E275
:1000E00090E0ABDF8AE090E0BFDFCF91089548ED6C
:1000F0004CBF17BF4CBF16BF4CBF40EA49BF62E0C0
:1001000061B945E043B91FBD40E14EBD49E04DBD79
:1001100044E650E057BD46BD1EBD65BB41E043BB54
:1001200078944AB7417F44604ABF02990BC08AE085
:1001300090E09FDF0299F9CFA5DF8AE090E099DF98
:10014000029BFECF0099F1CF8AE090E092DF009908
:10015000ECCFAEDF8AE090E08CDF009BFECFE5CFF6
:04016000F894FFCF41
:00000001FF
